{
  "_format": "hh-sol-artifact-1",
  "contractName": "TaskContract",
  "sourceName": "contracts/Task.sol",
  "abi": [
    {
      "anonymous": false,
      "inputs": [
        {
          "indexed": false,
          "internalType": "address",
          "name": "recipient",
          "type": "address"
        },
        {
          "indexed": false,
          "internalType": "uint256",
          "name": "taskId",
          "type": "uint256"
        }
      ],
      "name": "AddTask",
      "type": "event"
    },
    {
      "anonymous": false,
      "inputs": [
        {
          "indexed": false,
          "internalType": "uint256",
          "name": "taskId",
          "type": "uint256"
        },
        {
          "indexed": false,
          "internalType": "bool",
          "name": "isDeleted",
          "type": "bool"
        }
      ],
      "name": "DeleteTask",
      "type": "event"
    },
    {
      "inputs": [
        {
          "internalType": "string",
          "name": "_taskText",
          "type": "string"
        }
      ],
      "name": "addTask",
      "outputs": [],
      "stateMutability": "nonpayable",
      "type": "function"
    },
    {
      "inputs": [
        {
          "internalType": "uint256",
          "name": "_taskId",
          "type": "uint256"
        }
      ],
      "name": "deleteTask",
      "outputs": [],
      "stateMutability": "nonpayable",
      "type": "function"
    },
    {
      "inputs": [],
      "name": "getTasks",
      "outputs": [
        {
          "components": [
            {
              "internalType": "uint256",
              "name": "id",
              "type": "uint256"
            },
            {
              "internalType": "string",
              "name": "taskText",
              "type": "string"
            },
            {
              "internalType": "bool",
              "name": "isDeleted",
              "type": "bool"
            }
          ],
          "internalType": "struct TaskContract.Task[]",
          "name": "",
          "type": "tuple[]"
        }
      ],
      "stateMutability": "view",
      "type": "function"
    }
  ],
  "bytecode": "0x608060405234801561001057600080fd5b50610cb5806100206000396000f3fe608060405234801561001057600080fd5b50600436106100415760003560e01c806304a87e3814610046578063560f3192146100645780636723856214610080575b600080fd5b61004e61009c565b60405161005b91906108b9565b60405180910390f35b61007e6004803603810190610079919061091b565b610392565b005b61009a60048036038101906100959190610a7d565b6104a6565b005b60606000808054905067ffffffffffffffff8111156100be576100bd610952565b5b6040519080825280602002602001820160405280156100f757816020015b6100e4610614565b8152602001906001900390816100dc5790505b5090506000805b6000805490508110156102d8573373ffffffffffffffffffffffffffffffffffffffff166002600083815260200190815260200160002060009054906101000a900473ffffffffffffffffffffffffffffffffffffffff1673ffffffffffffffffffffffffffffffffffffffff161480156101af5750600015156000828154811061018c5761018b610ac6565b5b906000526020600020906003020160020160009054906101000a900460ff161515145b156102c557600081815481106101c8576101c7610ac6565b5b9060005260206000209060030201604051806060016040529081600082015481526020016001820180546101fb90610b24565b80601f016020809104026020016040519081016040528092919081815260200182805461022790610b24565b80156102745780601f1061024957610100808354040283529160200191610274565b820191906000526020600020905b81548152906001019060200180831161025757829003601f168201915b505050505081526020016002820160009054906101000a900460ff1615151515815250508383815181106102ab576102aa610ac6565b5b602002602001018190525081806102c190610b85565b9250505b80806102d090610b85565b9150506100fe565b5060008167ffffffffffffffff8111156102f5576102f4610952565b5b60405190808252806020026020018201604052801561032e57816020015b61031b610614565b8152602001906001900390816103135790505b50905060005b828110156103885783818151811061034f5761034e610ac6565b5b602002602001015182828151811061036a57610369610ac6565b5b6020026020010181905250808061038090610b85565b915050610334565b5080935050505090565b3373ffffffffffffffffffffffffffffffffffffffff166002600083815260200190815260200160002060009054906101000a900473ffffffffffffffffffffffffffffffffffffffff1673ffffffffffffffffffffffffffffffffffffffff1614156104a35760016000828154811061040f5761040e610ac6565b5b906000526020600020906003020160020160006101000a81548160ff0219169083151502179055507ff88a35c3d2016c409a46570b994a17b408dbc83c14a03f521512d50b85386d06816000838154811061046d5761046c610ac6565b5b906000526020600020906003020160020160009054906101000a900460ff1660405161049a929190610bec565b60405180910390a15b50565b6000808054905090506000604051806060016040528083815260200184815260200160001515815250908060018154018082558091505060019003906000526020600020906003020160009091909190915060008201518160000155602082015181600101908051906020019061051e929190610637565b5060408201518160020160006101000a81548160ff021916908315150217905550505080600160003373ffffffffffffffffffffffffffffffffffffffff1673ffffffffffffffffffffffffffffffffffffffff16815260200190815260200160002081905550336002600083815260200190815260200160002060006101000a81548173ffffffffffffffffffffffffffffffffffffffff021916908373ffffffffffffffffffffffffffffffffffffffff1602179055507f1f54e1ba1832d428fbd7e7792beaf62b1fc5a382c207ffd614209c1413e94fda3382604051610608929190610c56565b60405180910390a15050565b604051806060016040528060008152602001606081526020016000151581525090565b82805461064390610b24565b90600052602060002090601f01602090048101928261066557600085556106ac565b82601f1061067e57805160ff19168380011785556106ac565b828001600101855582156106ac579182015b828111156106ab578251825591602001919060010190610690565b5b5090506106b991906106bd565b5090565b5b808211156106d65760008160009055506001016106be565b5090565b600081519050919050565b600082825260208201905092915050565b6000819050602082019050919050565b6000819050919050565b61071981610706565b82525050565b600081519050919050565b600082825260208201905092915050565b60005b8381101561075957808201518184015260208101905061073e565b83811115610768576000848401525b50505050565b6000601f19601f8301169050919050565b600061078a8261071f565b610794818561072a565b93506107a481856020860161073b565b6107ad8161076e565b840191505092915050565b60008115159050919050565b6107cd816107b8565b82525050565b60006060830160008301516107eb6000860182610710565b5060208301518482036020860152610803828261077f565b915050604083015161081860408601826107c4565b508091505092915050565b600061082f83836107d3565b905092915050565b6000602082019050919050565b600061084f826106da565b61085981856106e5565b93508360208202850161086b856106f6565b8060005b858110156108a757848403895281516108888582610823565b945061089383610837565b925060208a0199505060018101905061086f565b50829750879550505050505092915050565b600060208201905081810360008301526108d38184610844565b905092915050565b6000604051905090565b600080fd5b600080fd5b6108f881610706565b811461090357600080fd5b50565b600081359050610915816108ef565b92915050565b600060208284031215610931576109306108e5565b5b600061093f84828501610906565b91505092915050565b600080fd5b600080fd5b7f4e487b7100000000000000000000000000000000000000000000000000000000600052604160045260246000fd5b61098a8261076e565b810181811067ffffffffffffffff821117156109a9576109a8610952565b5b80604052505050565b60006109bc6108db565b90506109c88282610981565b919050565b600067ffffffffffffffff8211156109e8576109e7610952565b5b6109f18261076e565b9050602081019050919050565b82818337600083830152505050565b6000610a20610a1b846109cd565b6109b2565b905082815260208101848484011115610a3c57610a3b61094d565b5b610a478482856109fe565b509392505050565b600082601f830112610a6457610a63610948565b5b8135610a74848260208601610a0d565b91505092915050565b600060208284031215610a9357610a926108e5565b5b600082013567ffffffffffffffff811115610ab157610ab06108ea565b5b610abd84828501610a4f565b91505092915050565b7f4e487b7100000000000000000000000000000000000000000000000000000000600052603260045260246000fd5b7f4e487b7100000000000000000000000000000000000000000000000000000000600052602260045260246000fd5b60006002820490506001821680610b3c57607f821691505b60208210811415610b5057610b4f610af5565b5b50919050565b7f4e487b7100000000000000000000000000000000000000000000000000000000600052601160045260246000fd5b6000610b9082610706565b91507fffffffffffffffffffffffffffffffffffffffffffffffffffffffffffffffff821415610bc357610bc2610b56565b5b600182019050919050565b610bd781610706565b82525050565b610be6816107b8565b82525050565b6000604082019050610c016000830185610bce565b610c0e6020830184610bdd565b9392505050565b600073ffffffffffffffffffffffffffffffffffffffff82169050919050565b6000610c4082610c15565b9050919050565b610c5081610c35565b82525050565b6000604082019050610c6b6000830185610c47565b610c786020830184610bce565b939250505056fea2646970667358221220fdcfb022ce23bd9293b83fbb294cfaf15ebc6d8ef8f1b719ef3db2edb081095264736f6c63430008090033",
  "linkReferences": {},
  "deployedLinkReferences": {}
}